:020000040800F2
:1000000000A0002069100008AD100008AD10000825
:10001000AD100008AD100008AD1000080000000091
:10002000000000000000000000000000AD1000080B
:10003000AD10000800000000AD10000835110008E8
:10004000AD100008AD100008AD100008AD1000089C
:10005000AD100008AD100008AD100008AD1000088C
:10006000AD100008AD100008AD100008AD1000087C
:10007000AD100008AD100008AD100008AD1000086C
:10008000AD100008AD100008AD100008AD1000085C
:10009000D50C0008AD100008AD100008AD10000828
:1000A000AD100008AD100008AD100008AD1000083C
:1000B000AD100008AD100008AD100008AD1000082C
:1000C000AD100008AD100008AD100008AD1000081C
:1000D000AD100008AD10000889010008AD1000083F
:1000E000AD100008AD100008AD100008AD100008FC
:1000F000AD100008AD100008AD100008AD100008EC
:10010000000000000000000000000000AD1000082A
:10011000AD100008AD100008AD100008AD100008CB
:10012000AD100008AD100008AD100008AD100008BB
:10013000AD100008AD100008000000000000000035
:10014000AD100008AD100008AD1000080000000060
:10015000000000000000000000000000000000009F
:100160000000000000000000AD100008AD10000805
:10017000AD100008000000000000000000000000BA
:1001800000000000AD10000898B500AF174B174AEB
:10019000928A92B291B2164A1278120292B24A40F0
:1001A00092B292B29A821348134901F0B7FD034606
:1001B000002B1AD0114B1B785A1CD1B20F4A117068
:1001C0001C460C4801F03EFD0346DAB20C4B1A55B2
:1001D0000A4B1B78092B02D9084B00221A70094BD5
:1001E0001B780133DAB2074B1A7098BD0010004833
:1001F000C01D000800440040050105004600002025
:100200003C0000204800002080B58EB000AF2623BF
:100210003B7300237B730023BB730123FB7307F144
:100220000C03184600F0BEFE4FF40030012100F030
:1002300037FB07F11003184601F0C0FC07F110036B
:100240002548194601F096FC4FF4E1333B62002348
:100250007B620023BB620023FB620C233B63002311
:100260007B6307F120031C48194601F0C9FB1A48BB
:100270001A49012201F0F6FC4FF40030012100F090
:10028000F1FA02233B7201237B720023BB7200232D
:10029000FB7204237B603B1D4FF09040194600F039
:1002A0003BFB4FF090400221072200F0C9FB0823DE
:1002B0007B603B1D4FF09040194600F02DFB4FF046
:1002C00090400321072200F0BBFB0348012101F00D
:1002D0008BFC3837BD4680BD004400400501050059
:1002E00080B582B000AF0346FB71134B124A928A6D
:1002F00092B291B2114A1278120292B24A4092B26C
:1003000092B29A8200BF0E484FF4803101F0ECFCAB
:100310000346002BF7D1FB799BB20948194601F03F
:100320007FFC00BF0648402101F0DEFC0346002BA5
:10033000F8D00837BD4680BD00100048C11D000838
:100340000044004080B582B000AF03460A46FB710E
:100350001346BB80FB791846FFF7C2FFBB881B0B17
:100360009BB21A46114B9B5C1846FFF7B9FFBB883E
:100370001B0A9BB203F00F030C4AD35C1846FFF72D
:10038000AFFFBB881B099BB203F00F03074AD35C86
:100390001846FFF7A5FFBB8803F00F03034AD35CA1
:1003A0001846FFF79DFF0837BD4680BD00000020BE
:1003B00080B582B000AF0346FB715420FFF790FF79
:1003C000FB791B09DBB203F00F03084AD35C184624
:1003D000FFF786FFFB7903F00F03044AD35C18464E
:1003E000FFF77EFF0837BD4680BD00BF000000203C
:1003F00080B400AF034B1B781846BD465DF8047B04
:10040000704700BF4800002080B400AF0D4B1B7840
:10041000092B02D90B4B00221A700B4B1B78013BA6
:10042000DAB2094B1A70074B1B785A1CD1B2054A35
:1004300011701A46054B9B5C1846BD465DF8047B5F
:10044000704700BF47000020480000203C0000200B
:1004500080B48BB000AF786000233B620023FB6167
:100460000023BB6100237B6100233B6100237B628F
:100470000023FB600023BB60924B5B6803F00C031E
:100480003B623B6A042B07D0082B09D0002B30D1EC
:100490007B688D4A1A6030E07B688B4A1A602CE0DA
:1004A000884B5B6803F47013FB61864B5B6803F455
:1004B0008033BB61FB699B0C0233FB61BB69002B82
:1004C00005D1FB69814A02FB03F37B620DE07D4BA2
:1004D000DB6A03F00F0301337B617B4A7B69B2FB6C
:1004E000F3F3FA6902FB03F37B627B687A6A1A60B2
:1004F00003E07B68744A1A6000BF724B5B6803F0CC
:10050000F0033B623B6A1B093B62714A3B6A13443E
:100510001B78DBB2BB607B681A68BB68DA407B681B
:100520005A60684B5B6803F4E0633B623B6A1B0AFA
:100530003B62674A3B6A13441B78DBB23B617B68D2
:100540005A683B69DA407B689A605E4B5B6803F4EB
:1005500060533B623B6ADB0A3B625D4A3B6A134481
:100560001B78DBB2FB607B685A68FB68DA407B680B
:10057000DA60544BDB6A03F4F8733B623B6A1B0995
:100580003B62544A3B6A32F813309BB23B613B6991
:1005900003F01003002B06D07A6A3B69B2FBF3F23A
:1005A0007B681A6103E07B681A687B681A61454BB7
:1005B000DB6A03F478533B623B6A5B0A3B62454A61
:1005C0003B6A32F813309BB23B613B6903F0100386
:1005D000002B06D07A6A3B69B2FBF3F27B685A6162
:1005E00003E07B681A687B685A61364B1B6B03F02B
:1005F0001003002B03D17B68334A9A6103E07B68C8
:100600001A687B689A612F4B1B6B03F02003002B49
:1006100003D17B682C4ADA6103E07B681A687B6847
:10062000DA61284B1B6B03F48073002B0DD07B68C1
:100630001A687B6A9A4208D1FA68BB689A4204D168
:100640007B6A5A007B681A6203E07B68DA687B6821
:100650001A621C4B1B6B03F40073002B0DD07B68DC
:100660001A687B6A9A4208D1FA68BB689A4204D138
:100670007B6A5A007B685A6203E07B68DA687B68B1
:100680005A62104B1B6B03F00303002B04D17B68F1
:10069000DA687B689A6228E00A4B1B6B03F003035D
:1006A000012B04D17B681A687B689A621DE0054BB8
:1006B0001B6B03F00303022B0ED17B684FF4004247
:1006C0009A6212E00010024000127A0000093D0018
:1006D0001000002020000020604B1B6B03F0030380
:1006E000032B02D17B685E4A9A625C4B1B6B03F45E
:1006F0004033002B04D17B689A687B68DA6221E082
:10070000564B1B6B03F44033B3F5803F04D17B6839
:100710001A687B68DA6215E0504B1B6B03F44033B8
:10072000B3F5003F04D17B684FF40042DA6209E080
:100730004A4B1B6B03F44033B3F5403F02D17B6857
:10074000474ADA62454B1B6B03F44023002B04D16C
:100750007B689A687B681A6321E0404B1B6B03F44B
:100760004023B3F5802F04D17B681A687B681A6335
:1007700015E03A4B1B6B03F44023B3F5002F04D173
:100780007B684FF400421A6309E0344B1B6B03F49F
:100790004023B3F5402F02D17B68314A1A632F4BB7
:1007A0001B6B03F44013002B04D17B689A687B68B1
:1007B0005A6321E0294B1B6B03F44013B3F5801FF0
:1007C00004D17B681A687B685A6315E0234B1B6B66
:1007D00003F44013B3F5001F04D17B684FF40042CB
:1007E0005A6309E01D4B1B6B03F44013B3F5401F24
:1007F00002D17B681A4A5A63184B1B6B03F44003FF
:10080000002B04D17B689A687B689A6321E0134BC4
:100810001B6B03F44003B3F5800F04D17B681A68A7
:100820007B689A6315E00D4B1B6B03F44003B3F533
:10083000000F04D17B684FF400429A6309E0074B34
:100840001B6B03F44003B3F5400F02D17B68044AED
:100850009A632C37BD465DF8047B70470010024058
:1008600000127A0080B483B000AF78600B46FB7052
:10087000FB78002B06D00949084B5A697B68134363
:100880004B6106E00549054B5A697B68DB43134021
:100890004B610C37BD465DF8047B70470010024089
:1008A00080B483B000AF78600B46FB70FB78002B00
:1008B00006D00949084BDA697B681343CB6106E02F
:1008C0000549054BDA697B68DB431340CB610C3784
:1008D000BD465DF8047B70470010024080B483B0D1
:1008E00000AF78600B46FB70FB78002B06D00949FF
:1008F000084B1A697B6813430B6106E00549054BF9
:100900001A697B68DB4313400B610C37BD465DF809
:10091000047B70470010024080B487B000AF78605D
:10092000396000237B6100233B610023FB600023CF
:100930007B617CE07B69012202FA03F33B613B6847
:100940001A683B691340FB60FA683B699A426BD1B5
:100950003B681B79012B03D03B681B79022B34D1F8
:100960007B689A687B695B00194603238B40DB43F5
:100970001A407B689A607B689A683B685B79194685
:100980007B695B0001FA03F31A437B689A607B681A
:100990009B889AB27B699BB2194601238B409BB21C
:1009A000DB439BB213409AB27B689A807B689B883A
:1009B0009AB23B689B7919467B699BB201FA03F3B3
:1009C0009BB213439AB27B689A807B681A687B69F2
:1009D0005B00194603238B40DB431A407B681A6097
:1009E0007B681A683B681B7919467B695B0001FAD2
:1009F00003F31A437B681A607B68DA687B699BB2F1
:100A00005B00032101FA03F3DB431A407B68DA60E1
:100A10007B68DA683B68DB7919467B695B0001FA21
:100A200003F31A437B68DA607B6901337B617B697E
:100A30000F2B7FF67FAF1C37BD465DF8047B7047F8
:100A400080B485B000AF78600B467B8013467B7026
:100A50000023FB600023BB607B787A8802F00702EA
:100A600092009340FB607B88DB089BB218467B8832
:100A7000DB089BB21A467B68083253F822207B8839
:100A800003F007039B0019460F238B40DB4302EA68
:100A900003017B6800F1080243F822107B88DB0821
:100AA0009BB21A467B68083253F82220FB68134336
:100AB000BB607B88DB089BB21A467B680832B9684A
:100AC00043F822101437BD465DF8047B704700BF21
:100AD00080B582B000AF4FF400200121FFF7C2FEC5
:100AE0004FF400100121FFF7BDFE01233B710023ED
:100AF000BB710023FB7101237B714FF47F433B608B
:100B00003B4607481946FFF707FF40233B603B463B
:100B100004481946FFF700FF0837BD4680BD00BFF7
:100B2000001000480008004880B500AF00F012F83F
:100B3000074B00229A82064B054A928A92B291B2E2
:100B40000122120292B24A4092B292B29A82F2E723
:100B50000010004880B500AFFFF7BAFFFFF754FB65
:100B600000F004F800F0CEFA80BD00BF80B58CB074
:100B700000AF4FF000700121FFF792FE4FF480109C
:100B80000121FFF76FFE4E4800210722FFF758FFB3
:100B90004B4801210722FFF753FF03233B62022347
:100BA00087F82430032387F82530002387F8263080
:100BB000012387F8273007F1200341481946FFF742
:100BC000ABFE404800F076FB0023BB760023FB76AB
:100BD00000233B7700237B770023BB770023FB7741
:100BE0000023BB750323FB750A233B7605237B7625
:100BF0000423BB82344B4FF480729A8207F11403B2
:100C00003048194600F068FB034687F82B3097F808
:100C10002B30012B04D12C4B4FF47F429A8203E0FE
:100C2000294B4FF488429A82284BFB6200BFFB6A33
:100C30005A1EFA62002BFAD10023BB730123FB7307
:100C400000233B744FF6E073FB804FF6E0737B812B
:100C50004FF4C043BB804FF6E0733B810023BB8160
:100C600001237B743B1D184600F008FC1548022147
:100C7000012200F0A7FE14233B7000237B700023A9
:100C8000BB700123FB703B46184600F08BF9104BFC
:100C900000221A720E4B40F201321A600C4B0022F5
:100CA0005A600B4B00225A72094B00221A72084BF1
:100CB00001229A72064B0022DA723037BD4680BD9F
:100CC000000C00480064004000100048FFFF0F00C7
:100CD0004C00002090B583B000AF1D4800211D4A94
:100CE00000F0B8FD1B4B9B7AFB711B4B1A78FB790C
:100CF0001344DAB2184B1A70FB79002B00D123E0B1
:100D000012E0144BDB7C1C46FB79013BFA79013A7B
:100D100010490A44D07A1149E20013440B440246B8
:100D20001A70FB79013BFB71FB79002BE9D10C4B6D
:100D30000B4A928A92B291B20A4A1278120292B285
:100D40004A4092B292B29A820C37BD4690BD00BF23
:100D50000064004068000020600000207C0000204B
:100D600000100048BE1D000880B400AF034B1B7884
:100D70001846BD465DF8047B704700BF6000002048
:100D800080B483B000AF03460A46FB711346BB71C3
:100D90000B4B1B78002B05D0094B1B78013BDAB2BB
:100DA000074B1A70FA79BB790649D20013440B44F9
:100DB0001B7818460C37BD465DF8047B704700BFB2
:100DC000600000207C00002080B582B000AF0346A8
:100DD0000A46FB8013467B71154B154A928A92B2E4
:100DE00091B2144A1278120292B24A4092B292B26E
:100DF0009A82FB88104A13600F4A7B79D3720E4B9C
:100E000001229A720D480C4900F0F2FB03461A4683
:100E10000B4B1A7000BF0A4B1B780848194600F0AC
:100E2000AFFC0346012BF6D10837BD4680BD00BF9D
:100E300000100048BF1D00084C0000200064004066
:100E40006100002080B500AF1A4A1A4B1B6843F0BE
:100E5000010313601749174B5A68174B13404B6037
:100E6000144A144B1B6823F0847323F480331360FB
:100E7000104A104B1B6823F4802313600D4A0D4B5E
:100E80005B6823F4FE0353600A4A0A4BDB6A23F0D3
:100E90000F03D3620749074B1A6B084B13400B63D0
:100EA000044B00229A6000F00DF8054B4FF00062F1
:100EB0009A6080BD001002400CC07FF8CCFC00FF9F
:100EC00000ED00E080B483B000AF00237B6000231E
:100ED0003B60324A314B1B6843F4803313602F4B25
:100EE0001B6803F400333B607B6801337B603B6825
:100EF000002B03D17B68B3F5A06FF0D1274B1B68A3
:100F000003F40033002B02D001233B6001E00023F7
:100F10003B603B68012B3CD1214B12221A601F4AD7
:100F20001E4B5B6853601D4A1C4B5B6853601B4A39
:100F30001A4B5B6843F480635360184A174B5B6835
:100F400023F47C135360154A144B5B6843F4E81395
:100F50005360124A114B1B6843F08073136000BF4B
:100F60000E4B1B6803F00073002BF9D00B4A0B4BA0
:100F70005B6823F003035360084A084B5B6843F047
:100F80000203536000BF054B5B6803F00C03082BA2
:100F9000F9D10C37BD465DF8047B70470010024064
:100FA0000020024080B487B000AF786000237B61EE
:100FB00000233B610F23FB607B68DB78002B3AD07A
:100FC000274BDB68DB4303F4E0631B0A7B617B692F
:100FD000C3F104033B617B69FA6822FA03F3FB6007
:100FE0007B685B781A463B6902FA03F37B617B6896
:100FF0009B781A46FB6813407A6913437B617B69CF
:101000001B017B61174A7B681B787969C9B213445D
:101010000A4683F80023134A7B681B785B09DBB21E
:1010200018467B681B7803F01F03012101FA03F3C4
:1010300042F820300FE00B497B681B785B09DBB27C
:1010400018467B681B7803F01F0301229A4000F1C9
:10105000200341F823201C37BD465DF8047B704710
:1010600000ED00E000E100E0002103E00A4B5B58E6
:101070004350043109480A4B42189A42F6D3094AB0
:1010800002E0002342F8043B074B9A42F9D3FFF7F2
:10109000D9FEFFF749FD7047C41D0008000000207D
:1010A0003C0000203C000020FC000020FEE7000087
:1010B00080B483B000AF03463960FB7197F9073005
:1010C000002B0BDA0D49FB7903F00F03043B3A6860
:1010D000D2B21201D2B20B441A7609E0084997F94C
:1010E00007303A68D2B21201D2B20B4483F800231F
:1010F0000C37BD465DF8047B704700BF00ED00E093
:1011000000E100E080B500AF4FF0FF300121FFF7B4
:10111000CFFF064B00221A60044B054A5A60034B6E
:1011200000229A60014B07221A6080BD10E000E0A7
:1011300080FC0A0090B583B000AFFFF715FE0346B0
:10114000002B75D0564B1B781846FFF731F902205B
:101150000121FFF715FE03461B029CB2022000216D
:10116000FFF70EFE03469BB2224613439BB29AB290
:101170004C4B1A804B4B1B8847201946FFF7E2F86F
:1011800002200321FFF7FCFD03461B029CB2022054
:101190000221FFF7F5FD03469BB2224613439BB2A3
:1011A0009AB2404B1A803F4B1B8848201946FFF7E4
:1011B000C9F802200521FFF7E3FD03461B029CB29C
:1011C00002200421FFF7DCFD03469BB222461343B5
:1011D0009BB29AB2334B1A80324B1B884920194676
:1011E000FFF7B0F802200721FFF7CAFD03461B02F4
:1011F0009CB202200621FFF7C3FD03469BB22246A4
:1012000013439BB29AB2274B1A80264B1B884A2065
:101210001946FFF797F8224B1B78FF2B02D1204B82
:1012200000221A701E4B1B780133DAB21C4B1A7065
:10123000FFF7DEF80346002B15D0FFF7E5F803466D
:10124000FB71FB792F2B06D9FB79372B03D8FB7960
:10125000303BFB7101E00023FB71FB7940F2013070
:101260001946FFF7B1FD104B1B78322B0FD90F4BEE
:101270000E4A928A92B291B20D4A1278120292B23A
:101280004A4092B292B29A82074B00221A70064BE1
:101290001B780133DAB2044B1A700C37BD4690BD8F
:1012A000650000206200002064000020001000485B
:1012B000BD1D000880B582B000AF78604FF00070AF
:1012C0000121FFF70BFB4FF000700021FFF706FB39
:1012D0000837BD4680BD00BF80B485B000AF7860E0
:1012E00039600023FB730023BB607B681B6823F01D
:1012F00002027B681A607B681B6843F001027B680E
:101300001A6002E0BB680133BB607B685B6803F076
:101310000103002B04D1BB686FF07F429342F1D1EF
:101320007B685B6803F00103002B02D10023FB7391
:101330009CE03B689B79012B06D17B681B6843F0DE
:1013400080027B681A6005E07B681B6823F08002DE
:101350007B681A603B68DB79012B06D17B681B68D0
:1013600043F040027B681A6005E07B681B6823F04D
:1013700040027B681A603B681B7A012B06D17B68B0
:101380001B6843F020027B681A6005E07B681B68DD
:1013900023F020027B681A603B685B7A012B06D140
:1013A0007B681B6843F010027B681A6005E07B686D
:1013B0001B6823F010027B681A603B689B7A012B44
:1013C00006D17B681B6843F008027B681A6005E061
:1013D0007B681B6823F008027B681A603B68DB7A35
:1013E000012B06D17B681B6843F004027B681A60FE
:1013F00005E07B681B6823F004027B681A603B6889
:101400009B789A073B68DB781B061A433B681B797D
:101410001B041A433B685B791B051A433B681B8816
:10142000013B1A437B68DA617B681B6823F0010289
:101430007B681A600023BB6002E0BB680133BB60BD
:101440007B685B6803F00103002B04D0BB686FF07E
:101450007F429342F1D17B685B6803F00103002B6C
:1014600002D00023FB7301E00123FB73FB7B1846D2
:101470001437BD465DF8047B704700BF80B485B06B
:1014800000AF78600023FB607B689B7A1A460123DB
:101490009340FB60554A554BD3F8003243F00103AB
:1014A000C2F800325149514BD3F81C22FB68DB4390
:1014B0001340C1F81C327B681B7B002B25D14B49A4
:1014C0004A4BD3F80C22FB68DB431340C1F80C32C3
:1014D00046497B689B7A18467B68DB881B047A68E0
:1014E00052881A4300F1480341F833203F497B6892
:1014F0009B7A18467B689B881B047A6812881A437B
:1015000000F14803DB000B445A607B681B7B012B16
:1015100024D13649354BD3F80C22FB681343C1F86C
:101520000C3232497B689B7A18467B681B881B0407
:101530007A6852881A4300F1480341F833202B4956
:101540007B689B7A18467B689B881B047A68D288E4
:101550001A4300F14803DB000B445A607B68DB7AD6
:10156000002B09D12149214BD3F80422FB68DB432E
:101570001340C1F8043207E01C491C4BD3F8042285
:10158000FB681343C1F804327B681B89002B08D128
:101590001649164BD3F81422FB68DB431340C1F8FD
:1015A00014327B681B89012B07D110490F4BD3F8EC
:1015B0001422FB681343C1F814327B685B7B012B58
:1015C00007D10A49094BD3F81C22FB681343C1F821
:1015D0001C32064A054BD3F8003223F00103C2F84F
:1015E00000321437BD465DF8047B7047006400404C
:1015F00080B485B000AF786039600023FB737B68EE
:101600009B6803F08063002B02D00023FB7313E080
:101610007B689B6803F00063002B02D00123FB73FF
:101620000AE07B689B6803F08053002B02D0022302
:10163000FB7301E00423FB73FB7B042B00F0988019
:10164000FB7BFA7B7968183212010A44126802F0B7
:101650000102796818331B010B441A603B681B7A3E
:10166000002B13D1FB7BFA7B7968183212010A44F4
:1016700011683A68126852053868407A02430A4392
:10168000796818331B010B441A6015E0FB7BFA7B69
:101690007968183212010A4411683A685268D20017
:1016A0003868007A02433868407A02430A4379680E
:1016B00018331B010B441A603B689B7A03F00F033D
:1016C000DAB23B689A72FB7BFA7B796818321201B6
:1016D0000A44526822F00F02796818331B010B4448
:1016E0005A60FB7BFA7B7968183212010A4452680F
:1016F0003968897A0A43796818331B010B445A60A8
:10170000FB7B3A68927B11063A68527B12041143C4
:101710003A68127B12020A433968C97A0A43796827
:101720001B010B4403F5C4731A60FB7B3A68927C7F
:1017300011063A68527C120411433A68127C120274
:101740000A433968C97B0A4379681B010B4403F5D6
:10175000C4735A60FB7BFA7B7968183212010A4421
:10176000126842F00102796818331B010B441A60B9
:10177000FB7B18461437BD465DF8047B704700BFFD
:1017800080B485B000AF78600B46FB700023FB602F
:10179000FB78012B09D0022B0DD0002B11D17B68D7
:1017A0009A68264B1340FB600EE07B689A68244BD6
:1017B0001340FB6008E07B689A68224B1340FB6093
:1017C00002E00023FB6000BFFB681F4A93421BD06E
:1017D0001D4A934208D81D4A934212D0174A934299
:1017E00018D0002B0AD01EE0194A93420FD0154A98
:1017F000934215D0124A93420FD014E00223FB60AB
:1018000014E00023FB6011E00023FB600EE00023E6
:10181000FB600BE00123FB6008E00123FB6005E0B7
:101820000123FB6002E00023FB6000BFFB68DBB22A
:1018300018461437BD465DF8047B7047030000046A
:10184000000300080000031000010008010000046C
:101850000000011080B485B000AFF8600B467A60DC
:10186000FB72FB7AFA681B331B0113441B68DBB263
:1018700003F00403DAB27B681A727B681B7A002BD0
:1018800009D1FB7AFA681B331B0113441B685A0DFC
:101890007B681A6008E0FB7AFA681B331B0113446B
:1018A0001B68DA087B685A60FB7AFA681B331B01F5
:1018B00013441B68DBB203F00203DAB27B685A728E
:1018C000FB7AFA681B331B0113445B68DBB203F03D
:1018D0000F03DAB27B689A72FB7AFA681B331B013A
:1018E00013445B681B0ADAB27B68DA74FB7AFA6825
:1018F0001B01134403F5DC731B68DAB27B68DA72F0
:10190000FB7AFA681B01134403F5DC731B681B0A9E
:10191000DAB27B681A73FB7AFA681B01134403F589
:10192000DC731B681B0CDAB27B685A73FB7AFA68AB
:101930001B01134403F5DC731B681B0EDAB27B68D2
:101940009A73FB7AFA681B01134403F5DC735B6836
:10195000DAB27B68DA73FB7AFA681B01134403F589
:10196000DC735B681B0ADAB27B681A74FB7AFA686C
:101970001B01134403F5DC735B681B0CDAB27B6854
:101980005A74FB7AFA681B01134403F5DC735B6835
:101990001B0EDAB27B689A74FB7A002B06D1FB68C7
:1019A000DB6843F02002FB68DA6005E0FB681B6936
:1019B00043F02002FB681A611437BD465DF8047BD2
:1019C000704700BF80B485B000AFF860B9601346BF
:1019D000FB71FB79002B06D0FB685A69BB681A4380
:1019E000FB685A6106E0FB685A69BB68DB431A4032
:1019F000FB685A611437BD465DF8047B704700BF31
:101A000080B594B000AF786039600023FB64002398
:101A1000BB6400237B647B681B6823F001027B6846
:101A20001A607B685B687B647B6C23F440537B6447
:101A30003B689B687A6C13437B647B687A6C5A6062
:101A40007B681B687B647B6C23F4B05323F00C032E
:101A50007B643B685A683B68DB681A433B681B69D8
:101A600013437A6C13437B647B687A6C1A607B68DF
:101A70009B687B647B6C23F440737B643B685B698D
:101A80007A6C13437B647B687A6C9A6007F1080375
:101A90001846FEF7DDFC7B68324A934202D13B6B6D
:101AA000BB6416E07B68304A934202D17B6BBB6417
:101AB0000FE07B682D4A934202D1BB6BBB6408E008
:101AC0007B682B4A934202D1FB6BBB6401E03B6C09
:101AD000BB647B681B6803F40043002B11D0BB6C14
:101AE0005A003B681B68B2FBF3F3FB64BB6C5B0002
:101AF0003A681268B3FBF2F102FB01F29B1A7B64B5
:101B00000EE03B681B68BA6CB2FBF3F3FB643B6806
:101B10001A68BB6CB3FBF2F102FB01F29B1A7B6407
:101B20003B681B685A087B6C9A4202D8FB6C0133F5
:101B3000FB647B681B6803F40043002B0BD0FB6C39
:101B400003F00F035B087B64FA6C4FF6F0731340ED
:101B50007A6C1343FB64FB6C9AB27B689A815037B2
:101B6000BD4680BD003801400044004000480040B0
:101B7000004C004080B485B000AF7860396000232D
:101B8000FB607B685B68FB60FB6823F47063FB6051
:101B90003B681A683B685B681A433B689B681A435A
:101BA0003B68DB681343FA681343FB607B68FA68A1
:101BB0005A601437BD465DF8047B704780B483B02B
:101BC00000AF78607B6800221A607B6800225A6050
:101BD0007B6800229A607B680022DA600C37BD4681
:101BE0005DF8047B704700BF80B483B000AF7860BD
:101BF0000B46FB70FB78002B06D07B681B6843F01C
:101C000001027B681A6005E07B681B6823F0010213
:101C10007B681A600C37BD465DF8047B704700BFD7
:101C200080B483B000AF78600B467B807B88C3F3C1
:101C300008039AB27B681A850C37BD465DF8047BB1
:101C4000704700BF80B483B000AF78607B689B8C26
:101C50009BB2C3F308039BB218460C37BD465DF830
:101C6000047B704780B489B000AFF860B960134658
:101C7000FB710023BB6100237B6100233B610023D8
:101C8000FB61FB68FB61BB689BB21B0A9BB2BB613B
:101C9000BB68DBB27B617B69012202FA03F33B6123
:101CA000BB69022B03D1FB690433FB6105E0BB690F
:101CB000032B02D1FB690833FB61FB79002B06D0B3
:101CC000FB69FA6911683A690A431A6006E0FB6920
:101CD000FA6911683A69D2430A401A602437BD464E
:101CE0005DF8047B704700BF80B485B000AF7860BA
:101CF00039600023FB737B68DA693B681340002B73
:101D000002D00123FB7301E00023FB73FB7B184629
:101D10001437BD465DF8047B704700BF80B487B0C0
:101D200000AF786039600023FB6000237B610023F3
:101D3000BB600023FB743B689BB21B0A9BB2BB6079
:101D40003B68DBB27B617B69012202FA03F37B61B2
:101D5000BB68012B05D17B681B687A6913407B61E6
:101D60000DE0BB68022B05D17B685B687A69134084
:101D70007B6104E07B689B687A6913407B613B6808
:101D80001B0CFB60FB68012202FA03F3FB607B681B
:101D9000DB69FA681340FB607B69002B05D0FB68A8
:101DA000002B02D00123FB7401E00023FB74FB7CB9
:101DB00018461C37BD465DF8047B704701020408D5
:041DC000102040802F
:101DC400303132333435363738394142434445466D
:101DD40000000000010203040102030406070809CD
:101DE4000000010002000400060008000A000C00C4
:0C1DF400100020004000800000010000F2
:0400000508000000EF
:00000001FF
